:020000040800F2
:1000000080A800207902000835170008AD0100081B
:10001000DD160008DD0A0008AD3100080000000010
:10002000000000000000000000000000C101000806
:100030009D0E00080000000015020008D12A0008EB
:10004000930200089302000893020008930200083C
:100050009302000893020008A70E00084B0F000847
:100060005B0F00086B0F0008A90F0008350B000894
:1000700093020008450B0008550B0008BD0B000853
:1000800093020008C50B000893020008000000005E
:10009000000000000000000000000000BF0F00088A
:1000A00093020008930200089302000893020008DC
:1000B000930200089302000893020008AD130008A1
:1000C0009D130008930200089302000893020008A1
:1000D00093020008AD2F0008E12F00080000000087
:1000E000BF0E000893020008930200080000000001
:1000F0000000000000000000000000009302000863
:100100000000000093020008930200089302000818
:1001100000000000000000000000000000000000DF
:10012000930200089302000893020008930200085B
:100130009302000800000000000000000000000022
:100140000000000000000000000000009302000812
:10015000930200089302000893020008930200082B
:10016000CD130008BD1300080000000000000000CF
:10017000000000000000000000000000000000007F
:1001800000000000930200080000000000000000D2
:100190009302000893020008DFF80CD000F042FC44
:1001A0000048004709A1000880A800201EF0040FA5
:1001B0000CBFEFF30880EFF309800BF079BB000070
:1001C0002A4B19680868B0E8F04F80F30988BFF33C
:1001D0006F8F4FF0000080F311887047000000001F
:1001E00006480068006880F3088862B661B6BFF30D
:1001F0004F8FBFF36F8F00DF00BF00BF08ED00E03F
:10020000DFF80C00016841F470010160704700BF25
:1002100088ED00E0EFF30980BFF36F8F134B1A688E
:100220001EF0100F08BF20ED108A20E9F04F10607B
:1002300008B44FF0500080F31188BFF34F8FBFF325
:100240006F8F0FF01DFB4FF0000080F3118808BC8A
:1002500019680868B0E8F04F1EF0100F08BFB0EC46
:10026000108A80F30988BFF36F8F7047E402002083
:10027000EFF30580704700000648804706480047B6
:10028000FEE7FEE7FEE7FEE7FEE7FEE7FEE7FEE746
:10029000FEE7FEE7F12A0008990100082DE9F04188
:1002A0000024061B254671F1000605DA012400270B
:1002B000D0EB070067EB0101161E73F1000605DAAB
:1002C0000027D2EB0702012567EB030300F09AFA3F
:1002D00086460E4617469C46AC4204D00025D0EB1D
:1002E000050E65EB010624B10020D2EB000760EBA0
:1002F000030C704631463A466346BDE8F08110B5BE
:10030000431A934209D28318881803E010F8011D9C
:1003100003F8011D521EF9D210BD40EA01039B07EC
:1003200003D009E008C9121F08C0042AFAD203E06A
:1003300011F8013B00F8013B521EF9D210BDD2B2B8
:1003400001E000F8012B491EFBD270470022F6E7BE
:1003500010B513460A4604461946FFF7F0FF20463B
:1003600010BD421C10F8011B0029FBD1801A7047F8
:100370002DE9FE4F804681EA0300C00F0C46009035
:1003800021F0004123F00045B8EB0200A94105D25D
:100390004046214690461C460B46024623F000404C
:1003A000104347D0270DC7F30A00C3F30A51029048
:1003B000401A019040286BDAC3F3130040F4801B0D
:1003C0000098924620B10023D2EB030A63EB0B0B9B
:1003D00001985946C0F14002504600F044FA0646E2
:1003E0000D4650465946019A00F05CFA10EB0800A1
:1003F0006141002487EA115284EAE7731A4340D02E
:10040000009A62B3019A012A4FEA075215DC001BD9
:1004100061EB02014FF0004202EA0752CDE90042CF
:10042000001C41F5801132462B4600F093FA03B0D0
:10043000BDE8F08F40462146F9E7001B61EB020161
:10044000001C41F5801300185B412018A2F500172D
:1004500047EB030140EAD570B6196D4111E06D0814
:100460004FEA360645EAC0754FEA0752001B61EBBA
:100470000201001C41F5801149084FEA30000019C3
:10048000514132462B4603B0BDE8F04F00F053BA5D
:100490000098012240000023D0EB020263EBE073DE
:1004A000009821464FEAE074B8EB000061EB0401CC
:1004B000E9E783F000435BE781F0004158E72DE96D
:1004C000FE4F81EA030404F0004421F0004100944F
:1004D0004FF0000B23F0004350EA01045ED052EAD3
:1004E00003045BD0C3F30A54C1F30A552C44A4F2AD
:1004F000F3340194A0FB0254C1F3130141F48011C1
:10050000C3F3130343F4801301FB024400FB034EC7
:10051000840A970A44EA815447EA8357A4FB076890
:1005200002958D0A05FB07854FEA932C04FB0C54BA
:100530002705029D4FEA065847EA1637B5EB08052E
:100540006EEB070C870E920E47EA811742EA831280
:10055000A7FB0201B6EB0B0164EB00042B0D43EA91
:100560000C335E1844EB1C50DA465146E7FB02019F
:10057000C5F313044FEA0B3343EA14534FEA043232
:10058000019C43EA0603A4F10C040294009CCDE90B
:1005900000B400F0DFF903B0BDE8F08F00200146A1
:1005A000F9E72DE9F04D81EA030404F0004B21F056
:1005B000004514464FF0000A23F0004150EA0502BE
:1005C00020D054EA01021DD0C5F30A570246C5F3F4
:1005D0001303C1F31300C1F30A5640F4801543F42A
:1005E0008013A7EB0608101BD64608F2FD3873EB04
:1005F000050002D308F1010801E092185B41B8F14F
:10060000000F03DA00200146BDE8F08D00204FF412
:100610008011064684460EE0171B73EB050705D3D1
:10062000121B63EB050306434CEA010C49084FEA31
:10063000300092185B4150EA0107EDD152EA030005
:1006400012D082EA040083EA0501084305D0101B9A
:10065000AB4106D20122002306E000224FF0004306
:1006600002E06FF0010253101AEB06004CEB085148
:1006700010EB0A0041EB0B01BDE8F04D00F05BB957
:10068000F0B4CA17CB0F50405140C61841F10005D5
:100690004FEAC372314628004FF0960303D0B623C9
:1006A000F0BC00F01AB930460021F9E70EB5C10FD1
:1006B00080EAE0700844CA07002140F233438DE825
:1006C0000E000A460B4600F045F903B000BD0EB51A
:1006D00040F2334102910021CDE900110A460B4658
:1006E00000F038F903B000BDC1F30A5210B5C1F3F0
:1006F000130140F2FF3341F480119A4201DA0020E5
:1007000010BD40F233439A42A2F2334203DC52421C
:1007100000F0B8F810BD904010BD00F0004230F07D
:1007200000400AD0C10D01F56071C0F3160042EA25
:100730000151C2084007114370470020014670472D
:1007400030B5041E71F1000404DB4FF00044404258
:1007500064EB0101141E73F1000405DB1C464FF02D
:100760000043524263EB04038B4208BF824230BD18
:1007700030B5041E71F1000404DB4FF00044404228
:1007800064EB0101141E73F1000405DB1C464FF0FD
:100790000043524263EB0403994208BF904230BDCC
:1007A00001F0004330B421F0004150EA010206D0CC
:1007B0000A0DA2F56072C1F31301002A02DC30BCFD
:1007C00000207047440F44EAC104C100E01830BC67
:1007D00000EBC25000F078B830B50B46014600205F
:1007E0002022012409E021FA02F59D4205D303FAF3
:1007F00002F5491B04FA02F52844151EA2F1010274
:10080000F1DC30BD2DE9F05F0546002092469B46A5
:1008100088460646814640241BE028464146474616
:10082000224600F02FF853465A46C01A914110D381
:1008300011461846224600F016F82D1A67EB0108FB
:100840004F4622460120002100F00DF817EB000969
:100850004E41201EA4F10104DFDC484631462A4601
:100860004346BDE8F09F202A04DB203A00FA02F15B
:10087000002070479140C2F1200320FA03F319438E
:1008800090407047202A04DB203A21FA02F0002130
:10089000704721FA02F3D040C2F120029140084390
:1008A00019467047202A06DBCB17203A41FA02F09E
:1008B00043EAE07306E041FA02F3D040C2F12002BD
:1008C00091400843194670470029A8BF7047401C53
:1008D000490008BF20F00100704710B4B0FA80FC56
:1008E00000FA0CF050EA010404BF10BC704749B193
:1008F000CCF1200421FA04F411FA0CF118BF012103
:1009000021430843A3EB0C01CB1D4FEA00614FEAE2
:10091000102042BF002010BC704700EBC3501044B1
:100920000029A4BF10BC7047401C490008BF20F03C
:10093000010010BC704710B5141E73F1000408DAF2
:10094000401C41F1000192185B411A4301D120F093
:10095000010010BD2DE9F04D92469B4611B1B1FA50
:1009600081F202E0B0FA80F220329046FFF77BFF7E
:1009700004460F4640EA0A0041EA0B0153465A4634
:10098000084313D0114653EA010019D0C8F14002C0
:100990005046FFF777FF05460E46504659464246F9
:1009A000FFF761FF084305D0012004E020463946E7
:1009B000BDE8F08D0020054346EAE0762C4337433E
:1009C0000A986305E40AA0EB08000022FD0A44EA45
:1009D00047540A3002D500200146E9E70105101905
:1009E0006941DDE9084500196941BDE8F04DA2E71C
:1009F000C1F30A52C1F3130140F2FF3341F48011F5
:100A00009A4202DA00200146704740F233439A428C
:100A1000A2F2334202DC5242FFF734BFFFF723BF9A
:100A200000207047064C074D06E0E06840F00103E7
:100A300094E8070098471034AC42F6D3FFF7B0FBB8
:100A40003C2201085C22010870B5C1F30A5201F092
:100A500000450024C1F3130140F2FF3341F480113B
:100A60009A4201DA002070BD40F233439A42A2F26A
:100A7000334203DC5242FFF705FF00E090402C4375
:100A8000F1D0404270BD70B58C1810F8015B15F0C4
:100A9000070301D110F8013B2A1106D110F8012BF0
:100AA00003E010F8016B01F8016B5B1EF9D12B0715
:100AB00005D40023521E0DD401F8013BFAE710F8CB
:100AC000013BCB1A921C03E013F8015B01F8015BB8
:100AD000521EF9D5A142D8D3002070BD002108468E
:100AE00009F0E0FD0021012009F0DCFD00210220D9
:100AF00009F0D8FD0021032009F0D4FD09F0DAF84F
:100B00000121022009F034F90121042009F030F913
:100B1000C22102A00EF0D4F800BFFEE72E2E5C48E2
:100B2000415244574152455C7372635C6E7669630F
:100B30002E63000010B5024808F0BDF910BD00009A
:100B4000EC00002010B5024808F0B5F910BD000017
:100B50005001002008B50020009000221021134809
:100B600000F050F94FF0C051104800F049F84FF034
:100B7000C0510E4800F02AF8002201210C4801F073
:100B8000C1FC0021094800F055F869460948006891
:100B90000FF07AFA009838B14FF08050064908609B
:100BA000BFF34F8FBFF36F8F08BD00005860024046
:100BB000003800401402002004ED00E010B50DF0F4
:100BC00021FC10BD10B50EF079F910BD0246094B9D
:100BD0009A4201D2084801E00648103801F000535B
:100BE0001BB1064B0B40C36002E0044B0B4083601B
:100BF0007047000010640240006002407D0F7D0FCE
:100C00000246094B9A4201D2084801E006481038D2
:100C100001F000531BB1064B0B40C36002E0044BD4
:100C20000B40836070470000106402400060024087
:100C30007D0F7D0F21B1026842F00102026003E0E6
:100C4000026822F00102026070470000016821F092
:100C5000010101600021016041608160C1600161AA
:100C6000212141614A49884204D13D21484A103A34
:100C700091608CE046491831884205D14FF4746187
:100C8000434A103A916082E041493031884205D1AF
:100C90004FF474113E4A103A916078E03C49483173
:100CA000884205D14FF07461394A103A91606EE084
:100CB00037496031884204D13649354A103AD1600B
:100CC00065E033497831884204D13349304A103ADB
:100CD000D1605CE02E499031884204D12F492C4AE2
:100CE000103AD16053E02A49A831884205D14FF02B
:100CF0003D51274A103AD16049E02949884204D140
:100D00003D21274A083A116041E0254918318842BF
:100D100005D14FF47461224A083A116037E0204946
:100D20003031884205D14FF474111D4A083A1160E0
:100D30002DE01B494831884205D14FF07461184AB3
:100D4000083A116023E016496031884204D1114904
:100D5000134A121F11601AE011497831884204D1F8
:100D60000D490F4A121F116011E00D499031884260
:100D700004D10A490A4A121F116008E00849A83143
:100D8000884204D14FF03D51054A121F116070474F
:100D9000106002403D000020400F002000003D2078
:100DA00010640240014600200A6802F001020AB104
:100DB000012000E0002070470146486880B270477B
:100DC00030B503460A46002000240B4DAB4201D249
:100DD0000A4901E00849103902F000550DB14C688C
:100DE00000E00C68064D2C4004EA02050DB101201C
:100DF00000E0002030BD00001064024000600240AE
:100E00007D0F7D0F10B501F080034BB122B1436916
:100E100043F08003436103E0436923F080034361AF
:100E200080290BD02AB1036801F01E04234303601C
:100E300004E0036801F01E04A343036010BD00003A
:100E400010B500220268134B1A40CC680B6823438C
:100E50004C6923438C692343CC6923430C6A2343A5
:100E60004C6A23438C6A23434C6B23438C6B234390
:100E70001A430260426922F00702D1E90B3423438E
:100E80001A4342610B6943604B6883608B68C3609F
:100E900010BD00003F801CF041607047704710B5E6
:100EA0000EF01EFA10BD10B5012000F0C5F8FFF7D6
:100EB000F6FF10BD7047704770477047704710B518
:100EC0004FF4806000F0BEF8012804D1800200F0E9
:100ED000B3F8FFF7EFFF4FF4006000F0B3F801281C
:100EE00004D1C00200F0A8F8FFF7E5FF4FF48050EE
:100EF00000F0A8F8012804D1000300F09DF8FFF7E6
:100F0000DBFF4FF4005000F09DF8012804D14003AE
:100F100000F092F8FFF7D1FF4FF4804000F092F814
:100F2000012804D1800300F087F8FFF7C7FF4FF4D2
:100F3000004000F087F8012804D1C00300F07CF8DD
:100F400000F001F810BD7047704710B5022000F0A6
:100F500073F8FFF7F9FF10BD704710B5042000F0DB
:100F60006BF8FFF7F9FF10BD704710B5082000F0CF
:100F700063F8FFF7F9FF10BD08B50020009069463F
:100F8000074800680FF080F8009838B14FF08050A3
:100F900004490860BFF34F8FBFF36F8F08BD000097
:100FA000A804002004ED00E010B5102000F044F883
:100FB000FFF7E2FF10BD704770477047704710B5EC
:100FC000202000F03FF8012804D1202000F034F860
:100FD000FFF7F1FF402000F035F8012804D1402050
:100FE00000F02AF8FFF7E8FF802000F02BF8012836
:100FF00004D1802000F020F8FFF7DFFF4FF480706D
:1010000000F020F8012804D1000200F015F8FFF7E5
:10101000D5FF4FF4007000F015F8012804D140020C
:1010200000F00AF800F001F810BD704701490860AF
:1010300070470000143C01400149086070470000FF
:10104000143C014001460020034A12680A400AB1DC
:10105000012000E000207047143C0140002123499A
:101060008279002A3AD00A46126803689A430B46EE
:101070001A600A1D126803689A430B1D1A600279F0
:1010800011440A6803681A430A60184A0832126851
:1010900003689A43154B08331A601A1D12680368D7
:1010A0009A43124B0C331A604279102A0ED11A1F40
:1010B000126803681A430D4B08331A601A1D126830
:1010C00003681A43094B0C331A600DE00749427953
:1010D00011440A6803681A430A6005E00279114462
:1010E0000A6803689A430A6070470000003C0140A8
:1010F00030B10749096841F48061054A116005E093
:101100000349096821F48061014A116070470000B9
:10111000003C024070B504460A460026092502B983
:1011200009E0012A01D1160205E0022A01D11602C6
:1011300001E04FF4407600F09FF80546092D28D1D4
:101140001548006820F4407013490860084600689C
:10115000304308600846006820F0F8000860084640
:10116000006844F0020108430B4908600846006823
:1011700040F48030086000F07FF8054606480068BB
:1011800020F00200044908600846006820F0F800DA
:101190000860284670BD0000103C02400920134939
:1011A000096801F48031B1F5803F01D101201CE0D4
:1011B0000E49096801F0100109B1062015E00B493C
:1011C000096801F4807109B102200EE0074909683D
:1011D00001F0EF0109B1072007E00449096801F0B7
:1011E000020109B1082000E0092070470C3C0240D0
:1011F0000348006840F00040014908607047000063
:10120000103C024030B502460C46092500F034F887
:101210000546092D19D10E48006820F440700C498C
:1012200008600846006840F40070086008460068DE
:1012300040F001000860146000F01EF80546044804
:10124000006820F0010002490860284630BD000017
:10125000103C02400548006800F0004028B10448F6
:1012600002490C390860034808607047103C02408E
:1012700023016745AB89EFCD08B509200090FFF742
:101280008DFF009002E0FFF789FF00909DF80000BD
:101290000128F8D09DF8000008BDF0B50A460021ED
:1012A0000023002400BF3DE0012505FA01F3156885
:1012B00005EA03049C4234D105684F000326BE4072
:1012C000B543056015794E00B540066835430560A5
:1012D0001579012D02D01579022D16D185684F00A0
:1012E0000326BE40B543856055794E00B5408668FB
:1012F00035438560456801268E40B54345604568A5
:1013000096798E40B6B235434560C5684F000326D6
:10131000BE40B543C560D5794E00B540C66835437B
:10132000C560491C1029BFD3F0BDF0B500230024CF
:101330004D07ED0E02FA05F3CE1000F1200555F829
:1013400026504E07F70E0F26BE40B543CF1000F1D2
:10135000200646F82750CE1000F1200555F82650FB
:1013600045EA0304CE1000F1200545F82640F0BD03
:101370000246002013690B400BB1012000E0002061
:10138000704741837047018370474FF6FF710160DA
:101390000021017141718171C171704710B502481E
:1013A00007F0E2FD10BD0000EC00002010B502487F
:1013B00007F024FE10BD0000EC00002010B502482C
:1013C00007F0D2FD10BD00005001002010B502480A
:1013D00007F014FE10BD00005001002021B102886A
:1013E00042F48062028004E002884FF6FF331A4024
:1013F00002807047002221F07F42D34383827047EE
:1014000021B1828842F40062828004E082884FF237
:10141000FF731A408280704721B1828842F4805263
:10142000828004E082884EF6FF731A408280704703
:1014300010B504461348844209D10121480500F043
:10144000C7FD00214FF4001000F0C2FD18E00E4867
:10145000844209D10121880500F0BAFD00214FF432
:10146000800000F0B5FD0BE00848844208D101215E
:10147000C80500F0ADFD00214FF4000000F0A8FD0C
:1014800010BD00000054004000580040005C0040C7
:101490000CB50246002000230193009300920B0F2D
:1014A000019321F07F41019B1BB1009B14330093FA
:1014B00003E0090C009B18330093009B1B680B4052
:1014C0000BB1012000E000200CBD1AB183880B4352
:1014D000838002E083888B43838070472DE9FF4738
:1014E00004460D460026B1460427DFF8CC80A688C6
:1014F0004FF6C0700640684600F094FDDDF80880A5
:101500002E48B8FBF0F01FFA80F946EA0906A680DB
:1015100020884FF6FE710840208000262849286860
:1015200088420CD828684000B8FBF0F087B2042F3E
:1015300000DA04273E4309F10100208427E0E8880F
:101540004BF6FF71884206D1286800EB4000B8FBDB
:10155000F0F087B209E0286800EBC00101EB001051
:10156000B8FBF0F087B247F48047C7F30B0008B927
:1015700047F0010747F4004006434FF4967009FB1B
:1015800000F04FF47A7190FBF1F0401C2084A683A8
:10159000208840F00100208026884FF6F530064074
:1015A000A8886989084306432680A88929890843B1
:1015B0002081BDE8FF87000000127A0040420F0042
:1015C000A08601000146088AC0B2704712B141F0FE
:1015D000010101E001F0FE010182704701827047C4
:1015E0004CF6CC40014908607047000000300040D4
:1015F0004AF6AA2001490860704700000030004008
:10160000014948607047000000300040014988608F
:10161000704700000030004001490860704700003A
:101620000030004010B502460B46002011E00021BA
:101630000CE002EB001404EB810494ED000A03EBD0
:10164000001404EB810484ED000A491C0429F0DB3A
:10165000401C0428EBDB10BD30B503460C460020CF
:1016600039E0002134E003EB001595ED000A04EBAE
:101670008105D5ED000A20EE200A03EB0015D5ED1B
:10168000010A04F1100505EB810595ED001A00EE45
:10169000810A03EB0015D5ED020A04F1200505EBE4
:1016A000810595ED001A00EE810A03EB0015D5EDDA
:1016B000030A04F1300505EB810595ED001A00EEF3
:1016C000810A02EB001505EB810585ED000A491C36
:1016D0000429C8DB401C0428C3DB30BD00210846B8
:1016E00008F0E0FF0021012008F0DCFF00210220CB
:1016F00008F0D8FF0021032008F0D4FF08F0DAFA40
:101700000121022008F034FB0121042008F030FB05
:10171000AE2102A00DF0D4FA00BFFEE72E2E5C48E9
:10172000415244574152455C7372635C6E76696303
:101730002E6300007047000070B5002100230F22C7
:10174000C4781CB3174C246804F4E064C4F5E06466
:10175000C4F30721C1F10404E3B20A4144789C4078
:10176000E1B28478144021430C07210E0E4C057819
:101770006155047804F01F050124AC4005786D1113
:10178000AD0005F1E025C5F8004109E0047804F05A
:101790001F050124AC40054D0678761145F826401A
:1017A00070BD00000CED00E000E400E080E100E02E
:1017B00002490143024A1160704700000000FA0527
:1017C0000CED00E0024A0A400243024B1A607047E7
:1017D00080FFFF1F08ED00E070B5064600240CE016
:1017E000002506E00020084901EBC5010855681CEA
:1017F00085B2802DF6DB601C84B2082CF0DB0EB1C4
:1018000000F06EF970BD0000D406002010B5002174
:101810008D2000F031FB0021102000F02DFB002175
:10182000AE2000F029FB10BD10B500218D2000F086
:1018300023FB0021142000F01FFB0021AF2000F04B
:101840001BFB10BD2DE9FF4F84B081468A46002066
:10185000029083460698A0EB09050798A0EB0A06BC
:10186000CDF80490CDF800A0002D01DD012705E0A2
:101870000DB9002702E04FF0FF376D42002E02DD68
:101880004FF0010806E016B94FF0000802E04FF0F3
:10189000FF387642B54201DD2C4600E03446002098
:1018A00003901EE0009A91B2019A90B2119A00F052
:1018B0001FF8029828440290B3440298A04205DD24
:1018C0000298001B0290019838440190A34504DD62
:1018D000ABEB040B0098404400900398401C80B28E
:1018E0000390611C03988842DCDD08B0BDE8F08FEE
:1018F000F0B5144600267F2801DC3F2900DDF0BD4D
:101900000B46CF1701EB5777FF10C7F10707FAB265
:10191000CF1701EB5777FF10A1EBC707FDB2C5F159
:1019200007070123BB40DEB24CB10A4B03EBC003F7
:101930009B5C3343074F07EBC007BB5408E0054BE4
:1019400003EBC0039B5CB343024F07EBC007BB54E0
:1019500000BFD4E7D40600202DE9F84105460E4625
:1019600017469846079C33463A4631462846009427
:10197000FFF768FF43462A46314628460094FFF7A2
:1019800061FF43463A46414628460094FFF75AFF16
:1019900043463A46314638460094FFF753FFBDE8C8
:1019A000F8812DE9F04706460F4690469946DDF846
:1019B00020A034460CE03D4606E05246294620462B
:1019C000FFF796FF681C85B24D45F6DB601C84B2BC
:1019D0004445F0DBBDE8F08710B501213E48FFF734
:1019E000D2FC4FF480713D48FFF7CDFC02213A480C
:1019F000FFF7C7FC01200DF0BBFD02213648FFF7C1
:101A0000C2FC78200DF0B4FD0021AE2000F034FAC5
:101A10000021D52000F030FA0021502000F02CFAEF
:101A20000021A82000F028FA00213F2000F024FA2D
:101A30000021D32000F020FA0021084600F01CFA13
:101A40000021402000F018FA00218D2000F014FA47
:101A50000021142000F010FA0021202000F00CFAE0
:101A60000021022000F008FA0021A12000F004FA71
:101A70000021C82000F000FA0021DA2000F0FCF973
:101A80000021122000F0F8F90021812000F0F4F983
:101A90000021EF2000F0F0F90021D92000F0ECF94E
:101AA0000021F12000F0E8F90021DB2000F0E4F94A
:101AB0000021302000F0E0F90021A42000F0DCF942
:101AC0000021A62000F0D8F90021AF2000F0D4F9C1
:101AD0000020FFF781FE10BD00040240000002401C
:101AE00070B500241CE004F1B001C8B2002100F080
:101AF000C3F90021022000F0BFF90021102000F0FE
:101B0000BBF9002508E0084901EBC501085D01218A
:101B100000F0B2F9681C85B2802DF4DB601C84B241
:101B2000082CE0DB70BD0000D406002010B5044690
:101B30000021812000F0A0F90021204600F09CF94E
:101B400010BD10B50446012C08D10021A02000F0E2
:101B500093F90021C82000F08FF91EE044B900215C
:101B6000A12000F089F90021C02000F085F914E0DF
:101B7000022C08D10021A02000F07EF90021C02015
:101B800000F07AF909E0032C07D10021A12000F030
:101B900073F90021C82000F06FF910BD2DE9F84F4E
:101BA00080460E4617461C46B2462046E31704EB15
:101BB0005373DB1021464FEAE47C04EB5C7C4FEA74
:101BC000EC0CA4EBCC0CBCF1000F02D04FF0010CDC
:101BD00001E04FF0000C6344224604EBD27C4FEA54
:101BE0006C0C03FB0CF31FFA83FBA7F12000C7B2B8
:101BF000002546E00C2C07D107EB4700234901EBF9
:101C00008000405D009009E0102C05D1204800EBD9
:101C10000710405D009001E0BDE8F88F4FF000092B
:101C200029E0009800F0800028B1314640460A9A29
:101C3000FFF75EFE09E00A9808B9012000E00020E5
:101C4000024631464046FFF753FE4FF6FF710098BB
:101C500001EA40000090701C86B2A6EB0A00A04288
:101C600005D1564608F101001FFA80F806E009F197
:101C700001001FFA80F9B9F1080FD2DB00BF681C20
:101C800085B25D45B6DB00BFC6E70000300701083E
:101C9000A40B01082DE9FF4F83B00E4692461F4664
:101CA000109C00962046E21704EB5272D210214697
:101CB000E31704EB5373DB10A4EBC3030BB1012355
:101CC00000E000231A447A4302F0FF0B102F05D1E5
:101CD000102C03D13548D0F8008002E007B0BDE8F1
:101CE000F08F002510E018F815009AF800108842CF
:101CF00008D16800401C18F800009AF801108842CA
:101D000000D107E0681C85B24046FEF72AFBB5EB20
:101D1000500FE8D300BF4046FEF723FBB5EB500F52
:101D200000D3DBE74FF000093CE0102F07D1102C67
:101D300005D11F4800EB451010F809000290002063
:101D4000019027E0029800F0800028B13146119AF6
:101D50000398FFF7CDFD09E0119808B9012000E0D4
:101D60000020024631460398FFF7C2FD0298400664
:101D7000000E0290701C86B20098301AA04205D165
:101D8000009E0398401C80B2039006E00198401C1E
:101D9000C0B2019001980828D4DB00BF09F101000E
:101DA00000F0FF09D945C0DB00BF97E76C020020B7
:101DB000941101082DE9FC5F07460E4615461C46A6
:101DC000DDF83090B846B2464FF0000B4DE0BBF165
:101DD000000F2ED12878802802DD4FF0010B44E05F
:101DE00004EBD4714A1008F18001891AB94202DA71
:101DF000301986B247460AF14000001BB04200DAB3
:101E000036E028780D2804D1301986B247466D1C7B
:101E100007E0CDF800902A78234631463846FFF790
:101E2000BDFE6D1C204604EBD07107EB61018FB243
:101E30001BE04FF0000B08F18000001BB84203DAF2
:101E4000A01C304486B247460AF14000001BB04255
:101E500000DA0DE023462A4631463846CDE90049EE
:101E6000FFF718FFAD1C381987B228780028AED1CB
:101E700000BFBDE8FC9F000070B504460D462DB1C3
:101E80004FF480710D48FFF77EFA04E04FF4807143
:101E90000A48FFF776FA01210948FFF772FA264649
:101EA00030460AF0F2FE01210548FFF76CFA4FF4C4
:101EB00080710248FFF767FA70BD00000000024021
:101EC0000004024003B52DED040B82B09DED040A21
:101ED000B5EEC00AF1EE10FA03D1B7EE000A8DEDAF
:101EE000040A9DED020ADFED210A20EE200ADDED55
:101EF000040A9FED1E1A30EE811AC0EE010A00EEB0
:101F0000100AB8EEC00A30EE800ABDEEC00A10EE2C
:101F1000102A12B200EE102AB8EEC00A8DED000AA7
:101F20009DED030ADFED110A20EE200ADDED040A23
:101F30009FED0E1A30EE811AC0EE010A00EE101A63
:101F4000B8EEC00A30EE800ABDEEC00A10EE102ACC
:101F500012B200EE102AB8EEC00A8DED010A9DED16
:101F6000000ADDED010A08B000BD00000000804459
:101F700029B1064A12680243044B1A6004E0034A7E
:101F800012688243014B1A607047000030380240EB
:101F900029B1064A12680243044B1A6004E0034A5E
:101FA00012688243014B1A607047000034380240C7
:101FB00029B1064A12680243044B1A6004E0034A3E
:101FC00012688243014B1A6070470000403802409B
:101FD00029B1064A12680243044B1A6004E0034A1E
:101FE00012688243014B1A6070470000203802409B
:101FF00029B1064A12680243044B1A6004E0034AFE
:1020000012688243014B1A60704700002438024076
:102010000348006840F08070014908607047000084
:1020200074380240F0B50021002200240225002669
:102030000223324F3F6807F00C0121B1042905D07B
:10204000082937D105E02E4F076036E02D4F076095
:1020500033E02A4F3F1F3F68C7F38056274F3F1F8B
:102060003F6807F03F036EB1264FB7FBF3F7DFF889
:102070008CC0ACF1040CDCF800C0CCF3881C07FB6E
:102080000CF40CE01E4FB7FBF3F7DFF870C0ACF1B7
:10209000040CDCF800C0CCF3881C07FB0CF4174FD1
:1020A0003F1F3F68C7F301477F1C7D00B4FBF5F776
:1020B000076002E0124F076000BF00BF0F4F3F688C
:1020C00007F0F0010909104F7A5C0768D7404760B4
:1020D0000A4F3F6807F4E051890A0B4F7A5C476862
:1020E000D7408760054F3F6807F46041490B064FB2
:1020F0007A5C4768D740C760F0BD000008380240EE
:102100000024F40000127A00D102002010B501462C
:102110000022002300204A11012A02D10A4C236820
:1021200008E0022A03D1084C7034236802E0064C10
:102130007434236801F01F02012494401C400CB148
:10214000012000E0002010BD0038024010B52DED48
:102150000A8BD0B00446B0EE408AF0EE608AB0EE52
:10216000419A9FEDE00A28EE000AB0EE408A9FED0A
:10217000DD0A28EE800AF0EE408A9FEDDA0A29EEA9
:10218000000AB0EE409AB7EE000A8DED200A9FEDEE
:10219000D60A8DED210A9FEDD40A8DED220A9FED1E
:1021A000D20A8DED230A9FEDD00A8DED240A18EE98
:1021B000100AFEF7B2FA41EC1B0BB0EE4B0AF0EE40
:1021C0006B0A01F02DFAB0EE40AAF0EE60AA51ECD5
:1021D0001A0BFEF7E5FA20A9486118EE100AFEF77F
:1021E0009CFA41EC1C0BB0EE4C0AF0EE6C0A01F0CC
:1021F0005FFEB0EE40BAF0EE60BA51EC1B0B81F01E
:10220000004141EC1A0BFEF7CBFA20A988619FED43
:10221000B60A8DED270A9FEDB40A8DED280A18EE57
:10222000100AFEF77AFA41EC1B0BB0EE4B0AF0EE07
:102230006B0A01F03DFEB0EE40AAF0EE60AA51EC50
:102240001A0BFEF7ADFA20A9486218EE100AFEF745
:1022500064FA41EC1B0BB0EE4B0AF0EE6B0A01F096
:10226000DFF9B0EE40AAF0EE60AA51EC1A0BFEF7CF
:1022700097FA20A988629FED9C0A8DED2B0A9FEDAD
:102280009A0A8DED2C0A9FED980A8DED2D0A9FED8F
:10229000960A8DED2E0AB7EE000A8DED2F0A18EE84
:1022A000900AFEF73AFA41EC1B0BB0EE4B0AF0EE47
:1022B0006B0A01F0B5F9B0EE40AAF0EE60AA51EC5D
:1022C0001A0BFEF76DFA10909FED870A8DED110A3B
:1022D00018EE900AFEF721FA41EC1B0BB0EE4B0A08
:1022E000F0EE6B0A01F0E4FDB0EE40AAF0EE60AA59
:1022F00051EC1A0BFEF754FA12909FED7B0A8DED0C
:10230000130A9FED790A8DED140AB7EE000A8DEDE0
:10231000150A9FED750A8DED160A9FED730A8DED76
:10232000170A18EE900AFEF7F8F941EC1C0BB0EE14
:102330004C0AF0EE6C0A01F0BBFDB0EE40BAF0EED4
:1023400060BA51EC1B0B81F0004141EC1A0BFEF717
:1023500027FA18909FED640A8DED190A18EE900A7D
:10236000FEF7DBF941EC1B0BB0EE4B0AF0EE6B0A0B
:1023700001F056F9B0EE40AAF0EE60AA51EC1A0B4B
:10238000FEF70EFA1A909FED580A8DED1B0A9FED8D
:10239000560A8DED1C0A9FED540A8DED1D0A9FED26
:1023A000520A8DED1E0AB7EE000A8DED1F0A19EED6
:1023B000100AFEF7B2F941EC1B0BB0EE4B0AF0EE3F
:1023C0006B0A01F02DF9B0EE40AAF0EE60AA51ECD4
:1023D0001A0BFEF7E5F9009019EE100AFEF79DF9C9
:1023E00041EC1C0BB0EE4C0AF0EE6C0A01F060FD03
:1023F000B0EE40BAF0EE60BA51EC1B0B81F0004138
:1024000041EC1A0BFEF7CCF901909FED370A8DEDE8
:10241000020A9FED350A8DED030A19EE100AFEF748
:102420007CF941EC1B0BB0EE4B0AF0EE6B0A01F0AD
:102430003FFDB0EE40AAF0EE60AA51EC1A0BFEF799
:10244000AFF9049019EE100AFEF767F941EC1B0B87
:10245000B0EE4B0AF0EE6B0A01F0E2F8B0EE40AAE3
:10246000F0EE60AA51EC1A0BFEF79AF905909FED79
:102470001E0A8DED060A9FED1C0A8DED070A9FEDE1
:102480001A0A8DED080A9FED180A8DED090AB7EEBC
:10249000000A8DED0A0A9FED140A8DED0B0A9FEDDF
:1024A000120A8DED0C0A9FED100A8DED0D0A9FEDBD
:1024B0000E0A8DED0E0AB7EE000A8DED0F0A40AA46
:1024C00020A92046FFF7C8F830AA10A940A8FFF7B6
:1024D000C3F82246694630A8FFF7BEF850B0BDECFD
:1024E0000A8B10BD34FA8E3C0000000021B1028836
:1024F00042F04002028004E002884FF6BF731A40A7
:10250000028070471AB183880B43838002E083887E
:102510008B4383807047000010B5044624488442F2
:1025200008D101218014FFF763FD0021A014FFF7FB
:102530005FFD3CE01F48844208D101210014FFF7F1
:1025400047FD00212014FFF743FD30E01A48844284
:1025500008D10121C013FFF73BFD0021E013FFF775
:1025600037FD24E01548844208D101214014FFF7CB
:102570003FFD00216014FFF73BFD18E01048844246
:1025800009D101210805FFF733FD00214FF4801028
:10259000FFF72EFD0BE00B48844208D101214805CE
:1025A000FFF726FD00214FF40010FFF721FD10BDBD
:1025B0000030014000380040003C00400034014041
:1025C000005001400054014010B50022028802F47E
:1025D00041520B884C8823438C882343CC88234367
:1025E0000C8923434C8923438C892343CC8923437F
:1025F0001A430280838B4FF2FF74234083830B8A3C
:10260000038210BD38B50446002000901C480078B5
:1026100008B1012038BD1B48046076201A490870B3
:10262000322005F0FFF96B460D2217480178154856
:10263000006806F086FB9DF80000102805D19DF883
:10264000001012A000F0DEFD01E00020E2E70BF038
:102650000DFF0622042100200CF064F8062204215C
:1026600001200CF05FF8072308220748017805488D
:10267000006806F0E6FB01200149087000BFC9E7C9
:1026800024020020200200201C02002053504C3065
:10269000362049442049533A20307825580A000012
:1026A00010B52DED028BB0EE408AB5EEC08AF1EE8A
:1026B00010FA16D09FED0C0AC0EE080AF0EE608A00
:1026C000DFED0A0AB0EE680A01F0C0F8F7EE000A82
:1026D00030EE600ADFED060A20EE200ABDEC028B28
:1026E00010BD9FED040AF9E7CDEC7D44B1DC423E1C
:1026F000002A2D470000000001461C48814201D2FB
:10270000002070471A48814201D20820F9E7194891
:10271000814201D21020F4E71748814201D21820EB
:10272000EFE71648814201D22020EAE714488142AF
:1027300001D22820E5E71348814201D23020E0E7AA
:102740001148814201D23820DBE71048814201D292
:102750004020D6E70E48814201D24820D1E70D48FB
:10276000814201D25020CCE75820CAE7004000083F
:102770000080000800C000080000010800000208F6
:1027800000000408000006080000080800000A080D
:1027900000000C0800000E0830B503460C46154634
:1027A000002206E0184600F007F844F822001B1D3E
:1027B000521CAA42F6D330BD01460868704700009B
:1027C0002DE9F04704460E4617464FF0090800254C
:1027D000A946B4F1006F02D304F0030008B1BDE8CC
:1027E000F087FEF737FD0020FEF782FC254604EB5C
:1027F00087091848854215D211E02846FFF7DCFF0B
:10280000401C58B12846FFF777FF82460221FEF7A9
:1028100081FC8046B8F1090F01D002E02D1D4D4525
:10282000EBD300BFB8F1090F0CD108E020463168A6
:10283000FEF7E8FC092800D003E0241D361D4C45B6
:10284000F4D300BF0120FEF753FCFEF7D1FC00BF1C
:10285000C5E700000000FF1F30B500228B071C0FEA
:102860000F2303FA04F20B4B8C1053F824309343DC
:10287000084C8D1044F8253023468C1053F8243032
:102880008C07240F00FA04F42343024C8D1044F803
:10289000253030BD0838014010B5A0B00446F0EE38
:1028A000402AF0EE601AB0EE412ACDED002A9FEDED
:1028B000210A8DED010A9FED1F0A8DED020A9FEDA1
:1028C0001D0A8DED030A9FED1B0A8DED040ACDED67
:1028D000051A9FED180A8DED060A9FED160A8DED7B
:1028E000070A9FED140A8DED080A9FED120A8DED7F
:1028F000090A8DED0A2A9FED0F0A8DED0B0A9FED57
:102900000D0A8DED0C0A9FED0B0A8DED0D0A9FED62
:10291000090A8DED0E0AB7EE000A8DED0F0A10AA16
:1029200069462046FEF798FE214610A8FEF77AFE7B
:1029300020B010BD000000000CB5002001900090F8
:102940003348006840F480303149086000BF3048A7
:10295000006800F4003000900198401C019000983D
:1029600018B90198B0F5A04FF1D12948006800F4DA
:10297000003010B10120009001E00020009000988C
:10298000012844D122484030006840F0805020495E
:10299000403108601F48006840F440401D4908600D
:1029A0001B48083000681A4908310860084600686A
:1029B00008600846006840F4805008601648091F07
:1029C0000860081F006840F08070091F086000BFA1
:1029D0000F48006800F000700028F9D040F2027043
:1029E0000E4908600A480830006820F003000849D2
:1029F000083108600846006840F00200086000BF27
:102A000003480830006800F00C000828F8D10CBD1D
:102A1000003802400070004008304004003C024092
:102A2000B7EE000A80ED000A9FED1E0A80ED010A54
:102A30009FED1C0A80ED020A9FED1A0A80ED030A41
:102A40009FED180A80ED040AB7EE000A80ED050A32
:102A50009FED140A80ED060A9FED120A80ED070A29
:102A60009FED100A80ED080A9FED0E0A80ED090A1D
:102A7000B7EE000A80ED0A0A9FED0A0A80ED0B0A04
:102A80009FED080A80ED0C0A9FED060A80ED0D0A05
:102A90009FED040A80ED0E0AB7EE000A80ED0F0AE2
:102AA0007047000000000000042808D14FF0E0212A
:102AB000096941F004014FF0E022116107E04FF095
:102AC000E021096921F004014FF0E0221161704713
:102AD00010B50DF0BFFB012802D00DF0B5F804E0F1
:102AE00002480068401C0149086010BD0402002033
:102AF00010B51548006840F4700013490860134889
:102B0000006840F001001149086000200F490831B9
:102B100008600E4800680E4908400C4908600D48DE
:102B2000091D0860081F006820F48020091F086044
:102B3000002006490C310860FFF7FEFE4FF00060F0
:102B400001498039086010BD88ED00E0003802407E
:102B5000FFFFF6FE1030002421B1028842F080020F
:102B6000028004E002884FF67F731A4002807047AB
:102B700021B1028842F00102028004E002884FF68F
:102B8000FE731A400280704710B5044655488442CF
:102B900008D101210846FFF72BFA00210120FFF799
:102BA00027FA9DE0B4F1804F08D101210846FFF7D4
:102BB0000FFA00210120FFF70BFA91E04A48844206
:102BC00008D101210220FFF703FA00210220FFF7BC
:102BD000FFF985E04548844208D101210420FFF730
:102BE000F7F900210420FFF7F3F979E04048844227
:102BF00008D101210820FFF7EBF900210820FFF799
:102C0000E7F96DE03B48844208D101211020FFF72D
:102C1000DFF900211020FFF7DBF961E0364884423C
:102C200008D101212020FFF7D3F900212020FFF750
:102C3000CFF955E03148844208D101210220FFF745
:102C4000D7F900210220FFF7D3F949E02C4884424C
:102C500009D101210804FFF7CBF900214FF480309E
:102C6000FFF7C6F93CE02748844209D10121480416
:102C7000FFF7BEF900214FF40030FFF7B9F92FE05C
:102C80002148844209D101218804FFF7B1F90021CC
:102C90004FF48020FFF7ACF922E01C48844208D1B1
:102CA00001214020FFF794F900214020FFF790F91F
:102CB00016E01748844208D101218020FFF788F9E7
:102CC00000218020FFF784F90AE01248844207D1EE
:102CD00001218015FFF77CF90021A015FFF778F995
:102CE00010BD00000000014000040040000800404A
:102CF000000C00400010004000140040000401409F
:102D000000400140004401400048014000180040DC
:102D1000001C00400020004070B500240022002369
:102D2000058C4FF6FE7635400584028C8388048B33
:102D30004FF68F752C40B51E2C400D882C43751E08
:102D40002A408D892A434D882A43104DA84202D03B
:102D50000F4DA84213D14FF6F7752A40CD892A436B
:102D60004FF6FB752A408D882A434FF6FF652B40AE
:102D70004FF6FF552B400D8A2B434D8A2B43838002
:102D800004838D684563028470BD0000000001402B
:102D9000000401400A460021018B4FF6F7731940E9
:102DA000114301837047000070B500240022002306
:102DB000058C4FF6EF7635400584028C8388048BB2
:102DC00048F6FF752C404FF6FF452C400D884FF616
:102DD000FF7606EA05252C434FF6DF752A408D89DC
:102DE00006EA05152A434D8806EA05152A43154DBE
:102DF000A84202D0144DA8421DD14FF67F752A403B
:102E0000CD894FF6FF7606EA05152A434FF6BF75C2
:102E10002A408D8806EA05152A434FF6FF352B40D8
:102E20004FF2FF752B400D8A06EA85052B434D8A2C
:102E300006EA85052B43838004838D6885630284BD
:102E400070BD000000000140000401400A4600215E
:102E5000018B4FF2FF7319404FF6FF7303EA022311
:102E6000194301837047000070B50024002200233D
:102E7000058C4FF6FF6635400584028C8388848B71
:102E80004FF68F752C404FF6FC752C400D882C4367
:102E90004FF6FF552A408D894FF6FF7606EA052545
:102EA0002A434D8806EA05252A43154DA84202D03B
:102EB000144DA8421DD14FF2FF752A40CD894FF61F
:102EC000FF7606EA05252A434FF6FF352A408D880E
:102ED00006EA05252A434EF6FF752B404DF6FF7591
:102EE0002B400D8A06EA05152B434D8A06EA051587
:102EF0002B43838084838D68C563028470BD00008A
:102F000000000140000401400A460021818B4FF679
:102F1000F7731940114381837047416370478163A0
:102F20007047C1637047000000220288184B984226
:102F30000ED0184B98420BD0B0F1804F08D0164BF2
:102F4000984205D0154B984202D0154B984204D1B7
:102F50004FF68F731A404B881A43124B984207D092
:102F6000114B984204D04FF6FF431A400B891A4385
:102F700002804B68C3620B880385054B984202D0E0
:102F8000044B984201D18B7A0386012383827047D8
:102F9000000001400004014000040040000800401F
:102FA000000C004000100040001400401CB5002040
:102FB000009040F22551084800F034F858B1064816
:102FC00000F0EAF8C0B2019000236A4601A9034864
:102FD00000680DF00BF81CBD0010014068020020D5
:102FE00010B50CF083F810BD01F40072B2F5007F4B
:102FF00000D100BFCA430280704721B1828942F4E8
:103000000052828104E082894DF6FF731A4082816A
:1030100070471AB1838A0B43838202E0838A8B4311
:103020008382704770B502460024002300250020EB
:1030300040F66A16B14200D100BFC1F3421501F05B
:103040001F03012606FA03F3012D02D196893340AE
:1030500006E0022D02D1168A334001E0968A334001
:103060000C12012606FA04F41688344013B10CB190
:10307000012000E0002070BDF0B5034600240026CA
:103080000025002040F66A17B94200D100BF18465B
:10309000C1F3421401F01F06012707FA06F5012CBF
:1030A00001D10C3004E0022C01D1103000E01430CA
:1030B0001AB107682F43076002E00768AF43076053
:1030C000F0BD00002DE9FF4705460E460024A1464D
:1030D00000BFA046B08900B100BF2C8A24F4405440
:1030E000F08804432C82AC8941F20C608443B088A0
:1030F00031890843718908430443AC81AC8A24F4C4
:103100004074B0890443AC826846FEF78BFF2048C8
:10311000854202D01F48854202D1DDF80C9001E0C3
:10312000DDF80890A88900F4004040B109EBC9001F
:1031300000EB091031684900B0FBF1F707E009EB3B
:10314000C90000EB091031688900B0FBF1F7642079
:10315000B7FBF0F004012009642101FB1078A88975
:1031600000F4004040B1322000EBC800B0FBF1F0A9
:1031700000F00700044308E0322000EB081064214F
:10318000B0FBF1F000F00F0004432C81BDE8FF8795
:10319000001001400014014001468888C0F3080077
:1031A0007047C1F308028280704700000021084682
:1031B00007F078FA0021012007F074FA00210220BC
:1031C00007F070FA0021032007F06CFA06F072FD98
:1031D0000121022006F0CCFD0121042006F0C8FDEB
:1031E000D62102A00BF06CFD00BFFEE72E2E5C483E
:1031F000415244574152455C7372635C6E76696319
:103200002E6300000FB4054B10B503A9044A0298C1
:1032100001F014FE10BC5DF814FB00009D8A00084C
:10322000100000200FB4084B10B504A902AA03989F
:1032300001F004FE044602A9002002F096F920469F
:1032400010BC5DF814FB00006B55000803B4019836
:103250004100009850EAC12018BF04204A0D18BF51
:1032600040F0010040F2FF72B2EB515F08BF40F046
:103270000200012808BF052002B070474100080283
:1032800018BF04200A0E18BF40F001004FF07F4223
:1032900032EA010108BF40F00200012808BF052002
:1032A0007047000010B54FF00E402DED028BB0EED0
:1032B000408A18EE104A00EB4400B0F1506F4AD833
:1032C0004FF0FC40B0EB440F22D2B0EEC80AF7EE4C
:1032D000000A30EEC00AF6EE000A60EE208A18EE10
:1032E000900A0BF07DFA01EE100A14F0004F1DBF9A
:1032F000DFED2D0A9FED2D0AB1EE411ADFED2C0A0C
:1033000008BF9FED2C0AF8EE001A21EE218A05E095
:10331000DFED290A68EE088AB0EE600A9FED271AF1
:10332000DFED271A30EE080A48EE811A9FED251AC4
:1033300008EEA11ADFED241A48EE811A9FED231A38
:1033400008EEA11A68EE281ABDEC028B01EE810A84
:1033500030EE200A10BD4FF0E440B0EB440F0CD922
:1033600018EE100AFFF78AFF042808BF01F0DCFB03
:10337000B0EE480ABDEC028B10BD4FF07F40B0EBC1
:10338000440F07D2B0EE480ABDEC028BBDE81040F6
:1033900001F0B4BB012001F089FCBDEC028BBDE85B
:1033A000104001F0B1BB00000000C9BF22AAFDB966
:1033B0000000C93F22AAFD390000000024FE1C3D88
:1033C000C78AD83C1E67383D1B93993DAFAA2A3E59
:1033D00010EE100A10B510EE901A4FF0684202EB92
:1033E00040032DED028BB3F1654F3CBF02EB410270
:1033F000B2F1654F7CD200BFC0F3C753C1F3C752CF
:103400009A1A1B2A09DD10F0004F14BF9FED6E0AB7
:103410009FED6E0ABDEC028B10BD12F11A0F1BDA84
:1034200011F0004F09D010F0004F0CBF9FED680A5B
:103430009FED680ABDEC028B10BD80EE208A18EE6D
:10344000100AFFF71BFF042808BF01F06DFBB0EE68
:10345000480ABDEC028B10BD4200B2EB410F37D9D8
:1034600010F0004F19BFDFED5C1A9FED5C1ADFED25
:103470005C1A9FED5C1AB0EE602A0A46F1EE400A33
:1034800080F00041B0EE420A10460A1A5200B2F132
:10349000807F34D2484010F0004FDFED532A9FED7B
:1034A000533A1DBFBEEE002A71EEE21A31EE431A06
:1034B000B6EE002A04BF71EEA21A31EE031AF0EE46
:1034C000402A42EE602A40EE020A82EEA02A18E06C
:1034D00011F0004F04BF9FED461AF0EE411AD4D010
:1034E00010F0004F1CBFDFED431A9FED431A00E0C0
:1034F00026E004BFDFED411A9FED411AC5E780EEDB
:10350000202A22EE020ADFED3F0ADFED3F2ABDEC62
:10351000028B40EE202ADFED3D0A40EE220ADFED6D
:103520003C2A40EE202ADFED3B0A40EE220A22EE42
:10353000000A00EE201A31EE020A30EE210A10BD18
:103540004FF07F42B2EB400F28BFB2EB410F05D2E4
:10355000BDEC028BBDE8104001F0D3BA40EA010394
:103560005B0008BF41F0FF410BD0B2EB400F08BF3A
:10357000B2EB410F08D120F0804000EE100A21F09C
:10358000804100EE901A37E7B2EB400F12BF5FEABE
:10359000410240F0FF4001F000413FF42DAF4A00EE
:1035A00092EA40033FF528AF002AACBF9FED1A1AFC
:1035B0009FED1A1A20EE010A60EE810A10EE100A41
:1035C00010EE901A18E70000DB0FC9BFDB0FC93FF0
:1035D000DB0F4940DB0F49C00000C9BF22AAFDB97B
:1035E0000000C93F22AAFD390060ED3EC30ACE3774
:1035F00000000000000049C022AA7DBA0000494036
:1036000022AA7D3A2DAD65BD8FB8D53D0FB511BE4F
:1036100061C84C3EA8AAAABE0000804F0000802FBF
:1036200010B52F499FED2C1B2DED020B84B0059892
:1036300020F000408842D8BF9DED040B2DDD2949C4
:10364000884209D1049840B94FF0010001F02EFBE7
:1036500001F02AFA06B010BD05DB9DED040B01F068
:1036600017FA06B010BD68469DED040B00F028FE69
:1036700010F0030004BF9DED021B9DED000B0CD06C
:1036800001280ED09DED021B9DED000B022817D0E6
:10369000012001F065F906B010BD01F02DF806B06B
:1036A00010BD9DED021B9DED000B012001F058F9AE
:1036B00051EC100B81F0004106B041EC100B10BD35
:1036C00001F01AF851EC100B81F0004106B041EC0A
:1036D000100B10BD00000000000000000000000002
:1036E000FB21E93F0000F07F10EE101A08B5444AB4
:1036F0006846B2EB410F28D94FF0E640B0EB410FDE
:1037000094BF00204FF0FF3000900098002861DB4C
:1037100060EE000A10F0010F45D010F0020FDFED4F
:10372000391A9FED391A00EEE11ADFED381A40EE32
:10373000811A21EEA01AF0EE400A40EE010A08BFFD
:10374000F1EE600AB0EE600A08BD314B21F0004294
:1037500093423CD911F0004FDFED2E0A20EE201AE3
:10376000DFED2D0A19BF31EE601A71EE200A31EE3D
:10377000201A71EE600ABDEEE01A11EE100A9FEDFC
:10378000271A00F0030000EEC10A9FED251A0090F1
:1037900000EEC10A9FED231A00EEC10A9FED221A26
:1037A00000EEC10AB1E79FED211A9FED210A10F04A
:1037B000020F00EE810A9FED1F1A00EE801AB7EE8D
:1037C000000A00EE810A18BFB1EE400A08BD01F000
:1037D000B3F99AE710EE100A4000B0F17F4F3CBFFA
:1037E000B7EE000A08BD07D14FF0010001F05EFA04
:1037F000BDE8084001F088B9BDE8084001F07EB995
:10380000B61F927E336D4C39DA82083CA0AA2ABEDC
:10381000490E494683F9223F0000004B0000C93F92
:1038200000A0FD390020A2331A61342CB93AB2BA93
:10383000CA9F2A3DDDFFFFBE2DED020B019820F04F
:10384000004001909DED000B02B0704710B510EEE6
:10385000100A2DED068BB7EE001A10EE901AB0EE9E
:10386000418A0022A0F5000CDFEDFE9A4FF00073B4
:10387000BCF1FE4F4FF07F4403EB410C80F0B4816C
:10388000BCF1804FC0F02082F74901449FEDF73A28
:10389000B1F5005F40F2D48200F58021CB0C03F03B
:1038A0000F0101EE901AC3F307137F3BA0EBC35047
:1038B000B8EEE12A00EE100A1A44DFEDED2AF0EE30
:1038C000411A42EE221AF0EE613A70EE232A30EEEF
:1038D000632A12EE900A00F500606FF30B0001EE10
:1038E000900A73EEE13A33EE804AC1EE223A22EEBC
:1038F000230A10EE100A00F500606FF30B0000EED3
:10390000100A00EE612A00EE442A62EE232A70EECD
:10391000221A21EEA12ADFEDD73A02EE233A23EE56
:10392000023A20EE012A22EE811A03EE211A32EE2B
:10393000010A10EE100A00F500606FF30B0000EEB4
:10394000100A72EE401A31EE812A9FEDCB1A60EE1A
:10395000011A9FEDCA1A20EE011A9FEDC90A02EE64
:10396000001A31EE810A10EE100A00F500606FF3C4
:103970000B0000EE100AC34871EEC01A31EE812A26
:10398000784400EBC10090ED003AD0ED011A10012F
:1039900001EE100AF8EEC12A32EE211A31EE001AB9
:1039A00031EE031A31EE221A11EE100A00F5006012
:1039B0006FF30B0009EE100A39EE621A31EE431A6A
:1039C00031EE400A30EE610A32EE40AA10EE900A63
:1039D000002100F500606FF30B0008EE900A084626
:1039E00070EEE8AAFDF71CF829EE280A00F00C0199
:1039F000F0EEC00A10EE900AB0F18B4F0DDD10EE24
:103A0000900AB4EB400F08D310EE100A4FF08B422F
:103A100062F31E0008EE900A13E069EE2A0A38EEFF
:103A2000AA1A4AEE010A30EE201A11EE100A00F529
:103A300000606FF30B0008EE900A30EE680A70EE3B
:103A4000209A0C20FCF7ECFF38EEA90AB5EEC00A6C
:103A5000F1EE10FA34BFFEEE000AF6EE000A30EE88
:103A6000800ABDEEC00A10EE100A011100EE101A15
:103A7000F8EEC00A00EE100AB8EEC00A38EEC00A2E
:103A800030EE290ADFED801A9FED801A00EE211A30
:103A9000DFED7F1A7F4900F00F0040EE011A21EEA2
:103AA000800A794401EB800191ED001A7A4979444A
:103AB00001EB8001D1ED001A784901EE801A7944BA
:103AC00001EB8000764990ED000A31EE001AB0EE6D
:103AD000E00A10EE100A884215DA10EE100AB4EB74
:103AE000400F10D39FED6F0A30EE800ADFED6E0AB3
:103AF00020EE200A68EE010ABDEC068BBCEEC00A7F
:103B000020EE200A10BD10EE100A6849884243DA00
:103B100010EE100AB4EB400F3ED3BDEEE00A68EEA3
:103B2000010A10EE100A00EBD0725110C90501F124
:103B30007E5100EE101AA0EB6200C00560EE200A74
:103B400000F17E5000EE100A60EE808A18EE900AB6
:103B5000B4EB400F0FD1022001F0A8F800F0DCFF19
:103B600010EE101A18EE100ABDEC068B61F31E0061
:103B700000EE100A10BD18EE900A400011D018EEA9
:103B8000900AFFF77BFB042808BF00F0CDFFB0EEE2
:103B9000680ABDEC068B10BDF5EEC00AF1EE10FA16
:103BA0000FD2022001F082F800F0BEFF10EE101AD2
:103BB00018EE100ABDEC068B61F31E0000EE100A31
:103BC00010BD022001F072F800F0A6FF10EE101AEE
:103BD000B0EE480A10EE100ABDEC068B61F31E0031
:103BE00000EE100A10BD00BFBCF1804F6CD300BFC7
:103BF00000F1FF43B3F1FE4F24D200BFB0EEC00A84
:103C000010EE100AC1F3C7537F2B0DDB972BBFF6C5
:103C10003BAEC3F196034FF0010C0CFA03F3A3F192
:103C2000010C1CEA010F08D0012001F03FF8BDECA7
:103C3000068BBDE8104000F067BF0B4218BFBFEE17
:103C4000008A21E643001CBF4FF08073B3EB400FA6
:103C500034D96FF01A02DFED161A20EE210A10EEA9
:103C6000100A27E000000000001080C0ABAAAA3EA6
:103C70000000803D7EE24C3E00B03842D49AB8BB92
:103C80003BAA384278E50000FC596337C9FF753A12
:103C90001872313D16E500004AE50000BAE4000064
:103CA0000000FC420000FE420000004B00004043C8
:103CB0000000004D10F0004FA0D1E5E5A0F5000395
:103CC000B3F1FE4F21D2DFE503EB4103B3F1007FF7
:103CD00011D3F5EEC00AF1EE10FA05D1430018BF7A
:103CE000B4EB400F76D883E701F0004141F0FC517E
:103CF00000EE901A7CE7B3F1807F06D210EE903A86
:103D0000A3F5000300EE903A72E720F000426FF056
:103D1000FF4C604C02EB0C03A34210D321F0004394
:103D20009C44A4450BD3B0F17E5F18BF5FEA410C01
:103D300050D0B2F1FF4F98BFB3F1FF4F05D9BDECA2
:103D4000068BBDE8104000F0DCBEB0F1FF4F0FD095
:103D5000C1F3C7527F2A09DB972A11DAC2F1960212
:103D6000012303FA02F2531E0B4205D0002208E0A1
:103D700011F0004F55D128E00A4218BF012200D1AE
:103D8000022210F5000F13D028B3B0F1004F26D057
:103D900010F1814F4FD04FF0FE42B2EB400F94BF75
:103DA00001200020012202EBE171884239D10CE0B0
:103DB00011F0004F02D0012A38D032E0012A02BFB0
:103DC0009FED350ABDEC068B10BD9FED340ABDECAE
:103DD000068B10BD2FE011F0004F0CD121E0B1F1A6
:103DE000FF4F1ED011F5000F05D011F0004F15D078
:103DF0000AB1012A08D0022000F058FFBDEC068B62
:103E0000BDE8104000F070BE022000F04FFF00F04F
:103E10006BFEBDEC068BB1EE400A10BD0AB1012A63
:103E200004D0B0EE690ABDEC068B10BDBDEC068B6C
:103E30009FED1B0A10BDBDEC068BB7EE000A10BD4E
:103E400030EE410AB5EE001A9FED172A00EE413A16
:103E5000B6EE001A60EE001A00EE431A61EEC11AC7
:103E60009FED101A20EE011A20EE020A9FED0F2A94
:103E700001EE820A71EE001A11EE900A00F5006060
:103E80006FF30B0009EE100A31EE491A31EE00AA69
:103E90009CE50000FFFF3F00000080FF0000807FE6
:103EA0000000008000B0B841D49A38BB3BAAB841AA
:103EB00010B52F499FED2C1B2DED020B84B00598FA
:103EC00020F000408842DCBF00209DED040B32DD75
:103ED0002849884209D1049840B94FF0010000F008
:103EE000E5FE00F0E1FD06B010BD05DB9DED040B25
:103EF00000F0CEFD06B010BD68469DED040B00F04D
:103F0000DFF910F0030011D0012818D09DED021B3D
:103F10009DED000B02281AD000F0EEFB51EC100BC7
:103F200081F0004106B041EC100B10BD9DED021B6D
:103F30009DED000B012000F013FD06B010BD9DEDBE
:103F4000021B9DED000B00F0D7FB06B010BD012059
:103F500000F006FD51EC100B81F0004106B041EC81
:103F6000100B10BD00000000000000000000000069
:103F7000FB21E93F0000F07F00B510EE101A2DED97
:103F8000028B81B0524A6846B2EB410F2ED94FF0F6
:103F9000E640B0EB410F94BF00204FF0FF3000909F
:103FA0000098B0EE408A00286ADB10F0010F4BD079
:103FB00068EE080A9FED471A9FED470A00EE810A56
:103FC0009FED461A10F0020F00EE801AB7EE000ABD
:103FD00000EE810A02BF01B0BDEC028B00BD00BF44
:103FE00001B0B1EE400ABDEC028B00BD3C4B21F0AC
:103FF0000042934241D911F0004FDFED3A0A20EE22
:10400000201ADFED390A19BF31EE601A71EE200A6D
:1040100031EE201A71EE600ABDEEE01A11EE100AC0
:104020009FED321A00F0030000EEC10A9FED301A36
:10403000009000EEC10A9FED2F1A00EEC10A9FED1D
:104040002E1A00EEC10AABE728EE080A9FED2B1AE4
:10405000DFED2B0A10F0020F40EE410A9FED291A06
:1040600000EE201A61EE000AB0EE480A08EE200ABF
:10407000B6D101B0BDEC028B00BD00F05DFD8FE755
:1040800018EE100A4000B0F17F4F0DD218EE100A62
:10409000FFF7F4F8042808BF00F046FDB0EE480A28
:1040A00001B0BDEC028B00BD09D1012000F0FEFD86
:1040B00001B0BDEC028B5DF804EB00F025BD01B052
:1040C000B0EE480ABDEC028B5DF804EB00F016BDC3
:1040D000B61F927EB93AB2BACA9F2A3DDDFFFFBE33
:1040E000490E494683F9223F0000004B0000C93FBA
:1040F00000A0FD390020A2331A61342C336D4C39F5
:10410000DA82083CA0AA2ABE10B52DED028BB1EED2
:10411000C08A18EE100A20F00040C0F1FF40C00F26
:104120000AD010EE100A20F00040C0F1FF40C00F8E
:1041300004BF012000F0BAFDB0EE480ABDEC028BCE
:1041400010BD000000B510EE101A2DED028B81B0ED
:104150004D4A6846B2EB410F3CD94FF0E640B0EB18
:10416000410F94BF00204FF0FF3000900098B0EE58
:10417000408A00285FDB28EE080ADFED440A9FED45
:10418000441A00EE201ADFED430A40EE010A9FEDCB
:10419000421A00EE201ADFED410A10F0010F40EE46
:1041A000010A9FED3F1A00EE201A61EE000AB0EE00
:1041B000480A08EE200A02BF01B0BDEC028B00BD28
:1041C000BFEE001A01B0C1EE000ABDEC028BB0EEEA
:1041D000600A00BD334B21F00042934228D911F010
:1041E000004FDFED310A20EE201ADFED300A19BF53
:1041F00031EE601A71EE200A31EE201A71EE600A7B
:10420000BDEEE01A11EE100A9FED291A00F003002E
:1042100000EEC10A9FED271A009000EEC10A9FED43
:10422000261A00EEC10A9FED251A00EEC10A9DE78D
:1042300000F082FC9AE718EE100A4000B0F17F4FC0
:104240000DD218EE100AFFF719F8042808BF00F085
:104250006BFCB0EE480A01B0BDEC028B00BD09D189
:10426000012000F023FD01B0BDEC028B5DF804EBF2
:1042700000F04ABC01B0B0EE480ABDEC028B5DF81C
:1042800004EB00F03BBC0000B61F927EBBE9223C71
:104290000C6D063B8A76CE3CACB5593D35A1083E47
:1042A00029AAAA3E490E494683F9223F0000004B45
:1042B0000000C93F00A0FD390020A2331A61342C50
:1042C0002DE9F14F04462DED020B2DED088B8AB040
:1042D0009FEDE70B80ED020B139EE74826F00045AB
:1042E00085420ADC9DED120B002084ED000B0AB024
:1042F000BDEC088B03B0BDE8F08FE0489FEDE0AB6C
:104300009FEDE1BBA84247DDE14F9FEDE39B9FEDB1
:10431000E48B9DED120B53EC1A2B51EC100B002E7D
:104320001CDDFCF7C6F841EC100BBD4208D053EC85
:104330001B2B51EC100BFCF7BCF8C4E900010BE09F
:1043400053EC192B51EC100BFCF7B3F853EC182B72
:10435000FCF7AFF8C4E900010120C8E7FCF708F852
:1043600041EC100BBD4208D053EC1B2B51EC100B51
:10437000FBF7FEFFC4E900010BE053EC192B51ECF5
:10438000100BFBF7F5FF53EC182BFBF7F1FFC4E91B
:1043900000014FF0FF30AAE7C348A84279DB9DED4A
:1043A000120B51EC100B03F04DFF41EC180B9FED7D
:1043B000C00B53EC102BFCF782F89FEDBF1B53ECA6
:1043C000112BFBF7D5FFFCF73FFB0746FCF76EF917
:1043D00041EC190B53EC1A2BFCF771F853EC182B2A
:1043E000FCF76AF841EC180B53EC1B2B51EC190B42
:1043F000FCF765F8DFF8C8A241EC100B4FEA15583E
:104400000125FA4453EC102B51EC180BFCF751F832
:10441000032DC4E900013DD0C1F30A5005EB45115D
:10442000A8EB00001139814234DA0AEB051BB0EE2B
:1044300048AA9BED000BF0EE68AA53EC102B51EC50
:10444000190BFCF73CF841EC1B0B51EC1A0B53EC2D
:104450001B2BFCF72EF841EC180B51EC1A0B53EC0C
:10446000182BFCF726F853EC1B2BFCF722F89BEDDE
:10447000020B41EC1A0B53EC102B51EC190BFCF70F
:104480001EF853EC1A2BFCF714F841EC100B6D1CC2
:10449000B8E70EE0002EA8BF3846BFF628AF94ED6F
:1044A000000B51EC100B81F00041C4E9000178428F
:1044B0001DE7C6F3130040F4801EC6F30A50A0F2B5
:1044C000F530471100F01F05C5F12000DDF848B0B8
:1044D00008900020069007900520EC467949002DB1
:1044E00007EB0002794408BF51F8221009D051F8B7
:1044F000223001EB8201AB404A68089922FA01F1AF
:104500001943A1FB0E26A1FB0B131A449A4234BF98
:104510000123002303EB06080CEB8003D3E901A67B
:104520000E448E4234BF0121002192448A4411B1CD
:10453000924502D903E0924501D2012100E0002119
:10454000C3E901A641444CF82010011EA0F101006E
:10455000C4DC029800F10050850F0298DDE9036782
:104560008000DDF81480FCF7A1F841EC1A0B30460E
:10457000FCF7ADF89FED541B53EC112BFBF79FFF9D
:1045800041EC1B0B3846FCF7A2F89FED511B53EC96
:10459000112BFBF794FF41EC180B4046FCF797F802
:1045A0009FED4D1B53EC112BFBF789FF41EC190BD1
:1045B00051EC180B53EC192BFBF7DAFE53EC1B2BC9
:1045C000FBF7D6FE53EC1A2BFBF7D2FECDE9080120
:1045D000002008909DED080B53EC1A2B51EC100BAA
:1045E000FBF767FF53EC1B2BFBF763FF53EC182B18
:1045F000FBF75FFF53EC192BFBF75EFF9FED381BBA
:1046000053EC112BFBF75BFF9FED370B41EC180BC5
:1046100053EC102B9DED080B51EC100BFBF74FFFEB
:1046200053EC182BFBF7A4FE9FED310B41EC180B5C
:1046300053EC102B9DED080B51EC100BFBF73FFFDB
:1046400053EC182BFBF794FE41EC100B139810F071
:10465000004F06D06D4251EC100B81F0004141EC4F
:10466000100B284684ED000B41E60000000000001E
:104670000000000000000000FB21E93F7CD902405F
:1046800000004054FB21F93F3163621A61B4D03D10
:10469000FB21F93F000000000000601A61B4D03D2A
:1046A0007370032E8A19A33BFB21394100000000DF
:1046B00083C8C96D305FE43F000000000000E03FA8
:1046C0006ADC0000B8DB0000000000000000103EC3
:1046D000000000000000103C000000000000103A44
:1046E000182D4454FB21F93D3326A611460B113CED
:1046F00000000054FB21F93D10B52DED040B2DED0C
:10470000088B82B0B0EE419AF0EE619A0B9820F0DF
:1047100000449FED4BABB4F1795F11DA9DED0A0BCC
:1047200051EC100BFCF790F9002801BFB0EE4A0ADB
:10473000F0EE6A0A02B0BDEC088B04BF04B010BDF5
:104740009DED0A0B53EC102B51EC100BFBF7B7FE51
:1047500041EC180B3C480621B0EE480AF0EE680A1E
:10476000784400F081F853EC182B51EC100BFBF758
:10477000A6FE9DED0A0B41EC1B0B53EC192B51ECE3
:10478000100BFBF79CFE41EC190B53EC1B2B51EC6F
:10479000180BFBF794FE53EC192BFBF78AFE9FEDE9
:1047A0002C0B41EC190B53EC102B51EC180BFBF7B5
:1047B00086FE41EC100B2848844210DA53EC192B8A
:1047C00051EC100BFBF775FE53EC1A2BFBF774FE44
:1047D00041EC100B02B0BDEC088B04B010BD1F48BB
:1047E000A042BCBF9FED1E1B8DED001B06DBA4F598
:1047F00000100190002000909DED001B51EC100B6B
:1048000053EC112BFBF755FE9DED000B41EC180B03
:1048100053EC102B51EC1A0BFBF74BFE41EC1A0B2F
:1048200053EC192B51EC180BFBF743FE53EC1A2BEE
:10483000FBF742FE41EC100BCCE70000000000004B
:10484000000000000000F03FDCD800000000000085
:10485000000000000000E03F3333D33F0000E93F99
:10486000000000000000D23F70B504462DED028B21
:104870004D1E00EBC500B0EE408AF0EE608A90ED70
:10488000000B35F0060017D053EC182B51EC100B31
:10489000FBF715FE41EC100B6D1E04EBC50090ED0F
:1048A000001B51EC100B53EC112BFBF761FD41EC9D
:1048B000100B35F00600E7D1022D36D0042D1CD0A8
:1048C000062D1CBFBDEC028B70BD53EC182B51ECB8
:1048D000100BFBF7F4FD94ED0A1B53EC112BFBF7C7
:1048E00047FD53EC182BFBF7EAFD94ED081B53EC46
:1048F000112BFBF73DFD41EC100B53EC182B51EC49
:10490000100BFBF7DCFD94ED061B53EC112BFBF7B2
:104910002FFD53EC182BFBF7D2FD94ED040B53EC59
:10492000102BFBF725FD41EC100B53EC182B51EC31
:10493000100BFBF7C4FD94ED021B53EC112BFBF79E
:1049400017FD53EC182BFBF7BAFD94ED001B53EC4D
:10495000112BFBF70DFDBDEC028B41EC100B70BD74
:1049600031B504462DED040B2DED0A8BB0EE41BAA6
:10497000F0EE61BA0B989DED0A0B20F00040B0F10B
:10498000795F0DDA51EC100BFEF760FC042808BFCC
:1049900000F09AF89DED0A0BBDEC0A8B05B030BD16
:1049A00053EC102B51EC100BFBF789FD41EC180B6D
:1049B0009DED0A0B53EC182B51EC100BFBF77FFD10
:1049C00041EC190B2C48B0EE480AF0EE680A0521BC
:1049D0007844FFF749FF9FED2ACBB0EE40AAF0EEF6
:1049E00060AA9CB353EC1C2B51EC190BFBF767FD31
:1049F00041EC1C0B53EC1A2B51EC190BFBF75FFD30
:104A00009FED210B41EC190B53EC102B51EC1B0BC0
:104A1000FBF755FD53EC192BFBF74BFD53EC182B13
:104A2000FBF74DFD53EC1B2BFBF743FD53EC1C2B0D
:104A3000FBF73FFD9DED0A1B53EC112BFBF73CFDF3
:104A4000BDEC0A8B05B041EC100B30BDFFE753EC19
:104A50001A2B51EC180BFBF732FD53EC1C2BFBF718
:104A600087FC53EC192BFBF72AFD9DED0A1B53EC39
:104A7000112BFBF77DFCE3E784D70000000000006A
:104A8000495555555555C5BF000000000000E03F91
:104A900010B553EC102B51EC100BFBF769FC41ECFB
:104AA000100B10BD000000009FED050B10B553EC7E
:104AB000102B51EC100BFBF774FD41EC100B10BDEB
:104AC00000000000000000009FED050B10B553EC46
:104AD000102B51EC100BFBF7F2FC41EC100B10BD4E
:104AE0000000000000000010DFED030AB7EE001A1E
:104AF00081EE200A704700000000000030EE000A3E
:104B0000704730EE200A7047DFED020A80EEA00AFF
:104B100070470000000000009FED020A20EE000A2E
:104B200070470000000000709FED020A20EE000AAE
:104B300070470000000000102DE9F0014FF07F42A7
:104B4000B2EB410F9FBF4FF0FF310160BDE8F001B4
:104B500070474FF0004242EA0123C1F3C752783A4E
:104B6000551112F01F0C434CCCF120067C44C1F3CC
:104B7000C752A2F178024FEA621204EB820254F8A3
:104B8000254008BFD2E9015612D0556804FA0CF44A
:104B900025FA06F73C43976805FA0CF527FA06F85C
:104BA000D26807FA0CFCF24045EA08054CEA020616
:104BB000A4FB034CA5FB0352A6FB03631D449D42CB
:104BC00034BF012600261319334416B1934202D98B
:104BD00003E0934201D2012200E00022624402F18C
:104BE000200C9206DC0C42EA443200EE102A5B03F1
:104BF000DFED210AF8EEC01A00EE103A4FEA9C1CD5
:104C000011F0004FB8EE400AC0F800C020EE201AA4
:104C100000EE105ADFED190AB8EE400A20EE200A25
:104C200071EE810A70EE800A10EE902A02F50062A1
:104C30006FF30B0200EE902A70EEE11A31EEC11A0A
:104C4000DFED101A30EE411A9FED0D0A20EE800ABA
:104C500001EE210A9FED0C1A00EE810A04BFBDE8A7
:104C6000F0017047CCF180510160BDE8F001B1EE78
:104C7000400A7047C8D50000000000360000802CB4
:104C800022AAFD29DB0FC92F0000C92F02E008C8A6
:104C9000121F08C1002AFAD170477047002001E0B6
:104CA00001C1121F002AFBD17047000001490860B2
:104CB00070470000300500202DE9FF5F82B0002121
:104CC000DDE90430020DDDF840B0034318D044F6AE
:104CD0001050A2F2FF3242431514119801281FD040
:104CE000A5EB0B00401C5FEA000A4FF000064E4F98
:104CF000DFF83891B046504615D5CAF1000413E0EC
:104D0000119801244AA3012801D16FEA0B010298EE
:104D1000119AC0E90031C0E9024206B0BDE8F09F37
:104D2000CBF10000DFE704460021404A491842EB7E
:104D30000450CDE9001012E0E00707D032463B46B0
:104D400040464946FBF7BBFB8046894632463B4618
:104D500010461946FBF7B3FB06460F466410002CBD
:104D6000EAD1DDE90401DDE90023BAF1000F06DA3A
:104D7000FBF7A5FB42464B46FBF7A1FB05E0FBF723
:104D800010FC42464B46FBF70CFC04460E46002244
:104D9000284BFBF7EDFC03D84FF0FF30014607E04E
:104DA0000022254B20463146FBF7E2FAFBF720FEB6
:104DB000102409E0002C0ADB0A220023FBF722FD65
:104DC000039B30321A55641E50EA0102F2D1641C72
:104DD000039AC4F111031444119A012A03D0012249
:104DE00008430DD10AE0084304D000204FF0110B16
:104DF000119072E7A3EB0B056D1E0DE05B4504DD22
:104E00004FF0000205F1010504E003DA4FF0000263
:104E1000A5F10105002AECD002981199C0E90231F0
:104E2000C0E9004579E70000000014400000F03FB1
:104E3000300000000000F0430000E03F2DE9FF4F8C
:104E400095B09B468946064600250FE2252877D176
:104E500000242746F84A0121059400E0044316F88F
:104E6000013F203B01FA03F01042F7D130782A28A5
:104E700011D06FF02F033078A0F13002092A16D834
:104E8000059A44F0020402EB820203EB4202104452
:104E9000761C0590EFE759F8042B0592002A03DAF7
:104EA000504244F40054059044F00204761C3078DB
:104EB0002E2816D116F8010F44F004042A280DD02C
:104EC0006FF02F023078A0F13003092B09D807EBDF
:104ED000870302EB4303C718761CF3E759F8047BFA
:104EE000761C30786C280FD006DC4C2817D0682848
:104EF0000DD06A2814D104E0742810D07A280FD17C
:104F00000DE044F400140AE044F4801401E044F499
:104F100040147278824202D104F58014761C761C0B
:104F2000307866280BD013DC582877D009DC0028AD
:104F300075D04528F6D04628F4D047281AD19DE1EF
:104F400018E0632835D0642879D0652812D195E11E
:104F5000702873D008DC6728F1D069286FD06E28DC
:104F60000DD06F2806D1B5E073282CD0752875D0E8
:104F7000782874D05A46179990476D1C75E1C4F390
:104F80000250022809D003280DD0D9F800100428B7
:104F90000DD00D6009F1040967E1D9F80010EA1796
:104FA000C1E90052F6E7D9F800100D80F2E70D7064
:104FB000F0E719F8041B8DF8001000208DF80100AF
:104FC000EA46012003E059F804AB4FF0FF306107D7
:104FD0004FF0000102D40DE008F101018846B9420A
:104FE0000FDA8045F8DB1AF808100029F4D108E040
:104FF00008F1010188468142FADB1AF808100029FD
:10500000F6D105985B46A0EB080721463846179A6B
:1050100000F094FA284400EB080507E04DE029E190
:105020000DE01AF8010B5A4617999047B8F101089C
:10503000F7D25B4621463846179A13E142E00A222E
:105040000092C4F302524FF0000A022A08D059F825
:1050500004CB032A4FEAEC710AD00DE029E02AE0E4
:1050600009F1070121F00702F2E802C1914609E0C7
:105070000FFA8CFC4FEAEC71042A03D14FFA8CFC36
:105080004FEAEC71002907DA0A460021DCF1000C36
:1050900061EB02012D2202E0220504D52B228DF8BE
:1050A0000420012203E0E20701D02022F7E7904626
:1050B00059E00A2102E010220DE010214FF0000A11
:1050C00000910BE010224FF0000A44F0040408277E
:1050D000009203E008224FF0000A0092C4F302524B
:1050E000022A05D059F804CB0021032A08D009E090
:1050F00009F1070121F00702F2E802C1914605E03B
:105100001FFA8CFC042A01D10CF0FF0C4FF00008B0
:10511000220728D5702806D0009B83F0100353EA9D
:105120000A0305D00EE040228DF80420012208E099
:105130005CEA010206D030228DF804208DF80500CB
:1051400002229046009B83F0080353EA0A030AD127
:105150005CEA010201D1620705D530228DF80420F6
:105160004FF001087F1E582804D034A003900EA8E9
:1051700002900DE036A0F9E753466046009AFBF72F
:1051800041FB84460398825C0298401E02900270A4
:105190005CEA0100F0D1029806A9081A00F1200A81
:1051A000600702D524F4803400E00127574502DD72
:1051B000A7EB0A0000E0002000EB0A010090059830
:1051C0004144401A0590E00306D45B462146179AF5
:1051D000059800F0B3F90544002706E001A85A46F7
:1051E000C05D179990476D1C7F1C4745F6DBE003B7
:1051F0000CD55B462146179A059800F09FF90544A7
:1052000004E030205A46179990476D1C0099481EBB
:1052100000900029F5DC08E0029802995A460078CF
:10522000491C0291179990476D1CBAF10001AAF12F
:10523000010AF1DC65E10000092801003031323358
:1052400034353637383961626364656600000000C2
:1052500030313233343536373839414243444546AC
:105260000000000000F058F90544761C3078002852
:105270007FF4ECAD19B02846BDE8F08F620700D48A
:10528000062709F1070222F0070CFCE80223E14699
:1052900003F000485FEA080C02D00FF2702C0DE01A
:1052A0005FEA045C02D50FF2682C07E05FEAC47C79
:1052B00002D00FF2602C01E0AFF2700C4FF0FF381B
:1052C00023F00043CDF850C065280CD006DC4528FB
:1052D00009D046281DD047283DD13DE0662818D08A
:1052E00067287ED138E00021112F01DB112000E07A
:1052F000781CCDE9000106A90EA8FFF7DDFCDDE969
:105300000F010E9A03910021009207F1010A049106
:105310004DE04FF000400097CDE9011006A90EA81E
:10532000FFF7CAFCDDE90F0203920E9B11990022E0
:10533000DDF80CA00093049211B9791C00EB010A6E
:10534000B7EB0A0004D4C0F1FF3007F1010A049062
:10535000AAEB0700019044E0012F00DA01270021A9
:10536000112F01DD112000E03846CDE9000106A92A
:105370000EA8FFF7A1FCDDE90F010E9A03910021B1
:1053800004910092BA4621070CD40399514500DAE2
:105390008A46BAF1010F05DD009AAAF10101515CBC
:1053A000302908D0B84202DA10F1040F06DA0121E0
:1053B000CDE9011015E0AAF10101E9E7002805DCBB
:1053C000049901440491AAEB000102E0411C5145FB
:1053D00000DD8A460499401A401C01904FF00040BD
:1053E0000290200704D40198504501DBCDF80480D9
:1053F00000208DF84F0002980DF14F07B0F1004FDB
:1054000025D02B200E9002984FF0020800280CDACD
:10541000404202902D200E9007E00A210298FBF7EF
:10542000DBF93031029007F8011DB8F10001A8F155
:105430000108F2DC02980028EFD1791E0E9808705E
:10544000307800F0200040F0450007F8020D12A867
:10545000C01B00F107081498007800B1012000EB90
:105460000A01019801EBE07105984144401A401E81
:105470000590E00306D45B462146179A059800F094
:105480005DF805441498007818B15A46179990476A
:105490006D1CE00324D55B462146179A059800F061
:1054A0004DF805441CE00498002807DBDDE9030102
:1054B000884203DD0098405C179901E0179930207D
:1054C0005A469047049805F10105401C0490019844
:1054D000401E019004D12E205A46179990476D1C0A
:1054E000BAF10001AAF1010ADDDC05E017F8010BB1
:1054F0005A46179990476D1CB8F10001A8F10108B0
:10550000F4DC5B462146179A0598ABE62D000000B7
:105510002B000000200000002DE9F041044600258A
:105520001E461746880404D405E039462020B047BB
:105530006D1C641EF9D52846BDE8F0812DE9F041C7
:10554000044600251E469046C80301D5302700E0DA
:105550002027880404D505E041463846B0476D1C35
:10556000641EF9D52846BDE8F0810A68531C0B601B
:105570001070704770B52DED028B04460D4616462F
:10558000307B30B14FF47A7029490880BDEC028B32
:1055900070BD95F8540090BB03F0B0FA78BB03F0EF
:1055A000A5FA00F0010050B394ED000A20EE000AC5
:1055B000D4ED010A94ED011A00EE810AD4ED020A3D
:1055C00094ED021A00EE810AB0EE408A95ED140ABD
:1055D000DFED180A80EE201AF0EE418AF0EE480A5C
:1055E000B0EE680A02F070FA40B1012008F048FD00
:1055F0009FED110A0A21232008F068FD00BF0C4826
:105600000088002804DD0A480088401E08490880F8
:105610000748008848B9284602F0ACFA28B10020B3
:1056200008F02EFD002008F047FD00BFAEE70000A7
:10563000EC030020000075440000000070B5064631
:105640000D46002411E005EB8401D1ED000AB0EE17
:10565000600AC4EBC40106EB810004F099FC05EB81
:10566000840080ED000A601CC4B2032CEBDB70BD2B
:10567000B5EEC00AF1EE10FA02D2B1EE401A01E026
:10568000B0EE401AB4EEE01AF1EE10FA04D29FED3B
:105690000C1AB0EE410A12E0B5EEC00AF1EE10FAB3
:1056A00004DD30EE601AB0EE410A08E0B5EEC00A43
:1056B000F1EE10FA03D230EE201AB0EE410A704734
:1056C000000000000C46154600BF502080F31188F2
:1056D000BFF34F8FBFF36F8F00BF2946204609F0FD
:1056E000EFFA2A4621460FA0FDF78CFD002108465F
:1056F00004F0D8FF0021012004F0D4FF0021022093
:1057000004F0D0FF0021032004F0CCFF04F0D2FA13
:105710000121022004F02CFB0121042004F028FBCD
:1057200000BFFEE7417373657274206661696C6542
:10573000642025733A25640A000000000146AA206F
:1057400000F1AF02D0B20A780244D0B24A780244E3
:10575000D0B2002204E08B1C9B5C0344D8B2521CE4
:105760004B789342F7DC704710B50C48007800B1D5
:1057700010BD002220210A200AF091FA0849086091
:105780000846006828B940F27D2206A10CA0FFF768
:1057900099FF01200149087000BFE9E7510300208B
:1057A0005C0300202E2E5C434F4D4D554E49434126
:1057B00054455C7372635C61746B702E630000000F
:1057C000727851756575650010B50446204600F085
:1057D00009FF2078052818D000231A460B490C48E9
:1057E00000680AF079FA01280FD1084840781E288D
:1057F00004DDAC2207A10FA0FFF764FF17490220C8
:1058000004F074FB014809F0CBFA10BD9886002023
:10581000E00300202E2E5C434F4D4D554E49434131
:1058200054455C7372635C726164696F6C696E6B22
:105830002E63000074785061636B65742E6461742C
:10584000614C656E203C3D2041544B505F4D4158AA
:105850005F444154415F53495A450000BC1E010852
:1058600001B58AB00A980078012833D10A98807867
:10587000232822D00EDC05281CD006DC012816D0F7
:10588000022815D0042824D113E0212813D022287F
:105890001FD111E0262813D004DC24280ED025289F
:1058A00017D10CE0A0280CD0A12812D10DE010E0F7
:1058B0000FE00EE00DE00CE00BE00AE009E008E08C
:1058C00007E00020F749087003E00120F54908705F
:1058D00000BF62E10A98007802287DD10A9880789A
:1058E00001287AD1F04890ED070A8DED090A90ED74
:1058F000060A8DED080A90ED050A8DED070AEB48C2
:1059000090ED070A8DED060A90ED060A8DED050A69
:1059100090ED050A8DED040AE54890ED070A8DED3E
:10592000030A90ED060A8DED020A90ED050A8DED51
:10593000010A9DED094ADDED083A9DED073ADDEDDE
:10594000062A9DED052ADDED041A9DED031ADDED15
:10595000020A9DED010A012007F0EEFBD54890ED0B
:10596000070A8DED090A90ED060A8DED080A90ED03
:10597000050A8DED070AD04890ED070A8DED060A5D
:1059800090ED060A8DED050A90ED050A8DED040AED
:10599000CA4890ED070A8DED030A90ED060A8DEDD9
:1059A000020A90ED050A8DED010A9DED094ADDED33
:1059B000083A9DED073ADDED062A9DED052ADDED5D
:1059C000041A9DED031ADDED020A9DED010A022085
:1059D00007F0B2FBBA4801E048E15CE090ED070A4D
:1059E0008DED090A90ED060A8DED080A90ED050A85
:1059F0008DED070AB34890ED070A8DED060A90ED8C
:105A0000060A8DED050A90ED050A8DED040AAE48F3
:105A100090ED070A8DED030A90ED060A8DED020A5E
:105A200090ED050A8DED010A9DED094ADDED083A7C
:105A30009DED073ADDED062A9DED052ADDED041A00
:105A40009DED031ADDED020A9DED010A032007F02A
:105A500073FB9E4890ED070A8DED090A90ED060A4A
:105A60008DED080A90ED050A8DED070A9FED984A25
:105A7000DFED973A9FED963ADFED952A9FED942A58
:105A8000DFED931A9DED091ADDED080A9DED070A79
:105A9000042007F051FB0A988078A1287DD107F0F7
:105AA0007BF9DFED8C0A9FED8C0A00F0D9FFDFED6A
:105AB000890A9FED880A05F053FA7B4890ED070AA2
:105AC0008DED090A90ED060A8DED080A90ED050AA4
:105AD0008DED070A754890ED070A8DED060A90EDE9
